:020000040800F2
:100000002009002041020008A52C0008C92800088A
:10001000A12C0008F90D00082D3700080000000091
:10002000000000000000000000000000D92C0008C3
:10003000D90E000800000000D52C00080D2D000886
:100040005B0200085B0200085B0200085B0200081C
:100050005B0200085B0200085B0200085B0200080C
:100060005B0200085B0200085B0200085B020008FC
:100070005B0200085B0200085B0200085B020008EC
:100080005B0200085B020008D50C00085B02000858
:100090005B0200085B0200085B0200085B020008CC
:1000A0005B0200085B0200085B0200085B020008BC
:1000B0005B0200085B0200085B0200085B020008AC
:1000C0005B0200085B0200085B0200085B0200089C
:1000D0005B020008093700085B0200085B020008A9
:1000E0005B0200085B0200085B020008F92D0008B3
:1000F0005B0200085B0200085B0200085B0200086C
:100100005B0200085B0200085B0200085B0200085B
:100110005B0200085B0200085B0200085B0200084B
:10012000FD0D00085B0200080D0E00085B020008D0
:100130005B0200085B0200085B0200085B0200082B
:100140005B0200085B0200085B0200085B0200081B
:100150005B0200085B0200085B0200085B0200080B
:100160005B0200085B0200085B0200085B020008FB
:100170005B0200085B0200085B0200080000000050
:100180005B0200085B02000800F002F800F049F88A
:100190000AA090E8000C82448344AAF10107DA45E2
:1001A00001D100F03EF8AFF2090EBAE80F0013F0EB
:1001B000010F18BFFB1A43F00103184784480000E1
:1001C000A4480000103A24BF78C878C1FAD8520772
:1001D00024BF30C830C144BF04680C6070470000C1
:1001E0000023002400250026103A28BF78C1FBD840
:1001F000520728BF30C148BF0B607047662904F022
:10020000C683002070471FB504F0AFFB00F0A2FBCF
:1002100004000020002103F0EDFEE0601FBD10B5DA
:1002200010BD00F097FC1146FFF7EDFF03F0BAFA9E
:1002300000F0B5FC03B4FFF7F2FF03BC00F0F6FCDE
:100240000948804709480047FEE7FEE7FEE7FEE76A
:10025000FEE7FEE7FEE7FEE7FEE7FEE704480549A6
:10026000054A064B70470000E52D0008890100088B
:100270002003002020090020200500202005002068
:1002800053EA020C00F069802DE9F04B4FF00006B4
:10029000002B1FBFB3FA83F503FA05F424FA05F621
:1002A0005E4012BF1643B2FA82F502FA05F4C5F1B8
:1002B00020051EBF22FA05FC44EA0C04203556EA4C
:1002C000044C4FEA144418BF641C4FF000084FF070
:1002D0000009904271EB030C39D3002919BFB1FA20
:1002E00081F701FA07F6B0FA80F700FA07F6C7F1CE
:1002F00020071EBF20FA07FC46EA0C062037B6FB93
:10030000F4FCA7EB0507103F07F01F0BCBF120060D
:100310002CFA06F60CFA0BFB44BFB3460026202F3E
:10032000A4BF5E464FF0000B5BEA060C08BF4FF01F
:10033000010B19EB0B0948EB0608ABFB027C06FB33
:1003400002CC0BFB03CCC01B71EB0C01C1E70B46CD
:10035000024641464846BDE8F08B13B5084318BF36
:100360004FF0FF300146AFF30080BDE81C407047FE
:100370000FB41CB5074B06AA7B446946009005984C
:1003800000F0CFFA0020694600F0DEFA1CBC5DF8F0
:1003900014FB0000CD0500002DE9F0474FF0000AE6
:1003A00089460446C0F820A02046E1688847002816
:1003B00076D0252806D0D4E901219047206A401C38
:1003C0002062F1E7E168204600258847C4F81CA0B8
:1003D00006460027C4F818A02A2E09D0304603F09C
:1003E00001FE38B304EB8708303EC8F8186019E006
:1003F00059F8041B204604EB87029161E1688847A5
:10040000012F064618D1E069002820DA25F02005E2
:100410001DE0D8F8180000EB800006EB40003038F3
:10042000C8F818002046E1688847064603F0DAFD60
:100430000028EED1012F0AD02E2E08D12046E168E7
:1004400088477F1C0646022F45F02005C4DBA069C3
:10045000002803DA404245F00105A061E80701D019
:1004600025F01005B6B1A6F14100192802D82036B2
:1004700045F400654A463146204625604D46FFF763
:10048000BDFE58B1012806D0ED1D25F0070000F192
:10049000080989E704E005F1040985E730468AE7A1
:1004A000206ABDE8F0874FF0000200B5134694467D
:1004B0009646203922BFA0E80C50A0E80C50B1F1BC
:1004C0002001BFF4F7AF090728BFA0E80C5048BFD0
:1004D0000CC05DF804EB890028BF40F8042B08BF6E
:1004E000704748BF20F8022B11F0804F18BF00F86A
:1004F000012B70477047704770472DE9FF4F0C463E
:100500001E464FF0FF378BB0D2E90001DDF8608066
:100510000A908A46C1F30A5505B93D4600210846AE
:100520004FF00000BAF1000F00F4400005DA00EBD4
:1005300080004FF4400101EA50004FEA9059B9F1B0
:10054000010F00DDB9460A9850EA4A000ED044F681
:100550001050A5F2FF3545432F14B8F1000F1ED0FF
:100560007542291E1EDDC9F100021CE0B8F1010F21
:100570004FF0000001D0302103E0F24305E02154A8
:10058000401CB042FBDB30460022002121540B9975
:10059000C1F80880C1E900200FB0BDE8F08FBD1B95
:1005A0006D1CDEE74A4600DA694206A800F05CFAF4
:1005B00006AB93E8070003AB83E8070050460A99AF
:1005C00003F02FF98DE80700A0F500501F380090C8
:1005D0000398002D0ADD42F21F014A460844002319
:1005E00003A90390684603F099FB09E0A0F50050C9
:1005F0004A461F38002303A90390684603F0A3FB73
:100600008DE807000004000C03D04FF0FF304108D4
:1006100000E01046B8F1000F03D00022009215460A
:100620001EE0751E05D400F099F9303262556D1E3A
:10063000F9D5B3460122084302D000227F1C04E012
:100640002078302801D100227F1E002A099784D00B
:100650001DE0112D07DA00F081F9303262556D1C72
:1006600050EA0102F5D1084302D00098C8B10EE06B
:100670000021681E05E0235C625C63542254401E26
:10068000491C8142F7DBAB46A81B401E09900020A5
:1006900004F80B000B98099AC0F80880C0E9002BF9
:1006A0007AE711264FF0000857E72DE9F04F88460A
:1006B0000446D21D22F0070191B0D1E90001CDE935
:1006C0000A0103F077FC02460B98C00F01D02D20E1
:1006D00007E02068810701D52B2002E0202101EAF4
:1006E000C000032A099001D0072A05DB03464146D2
:1006F000204600F079F90BE12078800601D5E06909
:1007000000E00620B8F1650F814606D0B8F1660F0B
:1007100018D0B8F1670F70D131E00020B9F1110F96
:10072000009001DB112301E009F101030AAA01A9EC
:100730000CA8FFF7E2FEDDE90C70002609F10105C7
:10074000834647E001204B4600904FF000470AAA3D
:1007500001A90CA8FFF7D1FEDDE90DB00C995D46AB
:10076000002610B909F101000D18B9EB050003D4FA
:10077000C0F1FF3609F10105A5EB09002BE0B9F145
:10078000010F01DA4FF001090020B9F1110F0090BB
:10079000484601DD112300E003460AAA01A90CA87E
:1007A000FFF7ABFEDDE90C704D460026834620784E
:1007B00000070AD4AB4500DA5D4601A8012D04DD2F
:1007C000411911F8011C302907D04F4502DA17F101
:1007D000040F04DA012082460FE06D1EEEE7002FC1
:1007E00002DCED1B3E4403E0781CA84200DD7D1CCA
:1007F000B81B00F1010A4FF000472078000703D42E
:10080000AA4501DB4FF0FF3A0021B7F1004F0DF18F
:1008100043088DF8431024D002202B23002F01DA47
:100820007F422D230A21021EA0F1010000DC5FB1EE
:1008300097FBF1FC97FBF1F201FB1C7C17460CF1D6
:10084000300C08F801CDEEE7A8F101000370218813
:10085000090501D5452100E06521A0F1010800F856
:10086000011C09980FA9A1EB0807FF1D00B1012089
:10087000411901EBEA70A1693844081A401EA061D1
:100880002078C00602D42046AFF30080099828B132
:10089000D4E901219047206A401C20622078C006DC
:1008A00022D52046AFF300801EE0002E04DBB345C6
:1008B00002DD01A8805D00E03020D4E901219047ED
:1008C000206A401C2062761CAAF101005FEA000A3F
:1008D0000AD100F03FF8C0680168405CD4E901210A
:1008E0009047206A401C2062281EA5F10105DCDC2F
:1008F00007E0D4E9012118F8010B9047206A401C59
:100900002062381EA7F10107F3DC2046AFF3008018
:10091000032011B041E6000001694A1C0261087819
:10092000704700B58FB0CDE901310021059105492F
:100930007944CDE9031011466846FFF72DFD0FB04D
:1009400000BD0000E5FFFFFF0A6802F8010B0A6026
:1009500070470000004870474000002030B5B0F1FB
:100960000A0271F100034FEA900E4EEA817EB0EB6D
:100970000E0061EB91014FEA101E4EEA017E10EB72
:100980000E0041EB11114FEA102E4EEA016E10EBF2
:100990000E0041EB11214FEA104E4EEA014E10EBD2
:1009A0000E0041EB1141401841F100014FEAD00027
:1009B00040EA41704FEAD1014FEA810444EA907461
:1009C00010EB800544EB01046D1944EB0404521B49
:1009D000A3414FF0000348BF0A3200D530BD401C90
:1009E00041F1000130BD00002DE9F0411F460446F1
:1009F00003260168072A01F4006004DB08B116A58C
:100A000005E016A503E008B115A500E015A521F045
:100A100010002060A069C01EA0610FB1401EA0613F
:100A20002046AFF300804FB1D4E90121384690470A
:100A3000206A401C2062C01C206206E0206AFAE79F
:100A4000D4E9012115F8010B9047761EF8D2204613
:100A5000AFF30080BDE8F0814E414E006E616E0044
:100A6000494E4600696E66002DE9F04781461646FC
:100A70008AB0354878440DC88DE80D003248784476
:100A8000801C03AC0DC884E80D0041F69B3008447F
:100A9000372190FBF1F290FBF1F5A5F1800501FB08
:100AA00012041B3C02D56442012000E00020DFF864
:100AB00098A080460027FA44AAF1BE0A0EE0E0079B
:100AC0000AD03246684607EB470101230AEB810151
:100AD00003F039F98DE8070064107F1C002CEED17B
:100AE000194F7F44AE3F19E0E80715D007EB04101B
:100AF0000DF1180A90E80E008AE80E00C068F04276
:100B000001D1981908903246012306A903A803F0E1
:100B10001AF903AB83E807006D10641C002DE3D1C4
:100B20004FF0010332466946B8F1000F03A802D026
:100B300003F0F4F801E003F006F9C9E90001C9F88F
:100B400008200AB0BDE8F087983F000000487047D1
:100B5000200000207546FFF7F9FFAE460500694604
:100B6000534620F00700854618B020B5FFF776FB06
:100B7000BDE820404FF000064FF000074FF000089E
:100B80004FF0000BAC46ACE8C009ACE8C009ACE8DB
:100B9000C009ACE8C00921F007018D46704710B5C7
:100BA0000446AFF300802046BDE81040FFF742BB8B
:100BB00030B44FF0013C50F8042B51F8043BCCFA10
:100BC00052F4D51A20D1FCB950F8042B51F8043B4B
:100BD000CCFA52F4D51A17D1B4B950F8042B51F805
:100BE000043BCCFA52F4D51A0ED16CB950F8042B50
:100BF00051F8043BCCFA52F4D51A05D1002CDAD0C6
:100C000030BC4FF00000704729BAB1FA81F111F001
:100C10001801D1F120008440F2D1CA40CB4012F03B
:100C2000FF0213F0FF0330BCD01A704701491820AF
:100C3000ABBEFEE7260002007047000080B501460B
:100C4000806B036C026C13F0500F06D0D2060FD4E9
:100C5000806BC26C0846904780BD42F4007101640D
:100C600001688A6812F0405F05D000F0C1F980BDCC
:100C700000F0C2F980BD027E002AF6D1CA6A12F4E1
:100C8000700F02D08A685205EFD44A6822F0200221
:100C90004A60016C21F480710164016CC904E4D4E0
:100CA000016C41F00101016400F0A2F980BD000077
:100CB00080B5806B40210164416C41F004014164C6
:100CC00000F09AF980BD000080B5806B00F092F9C9
:100CD00080BD000080B540F2DC00C2F2000000F0F0
:100CE0008DF940F22410C2F2000000F087F980BDB7
:100CF00010B542F20432C4F20102116821F440310D
:100D00001160D2F800C090E80A4043EA0C03C468BE
:100D100013604A6822F480724A6002694B6843EAB1
:100D200002224A604A6822F040724A604A6842EAF7
:100D30000E024A608A6822F400628A608A6822434E
:100D40008A60826A8B68012423F070638B608B68F1
:100D5000C0F60074A24202D123F0405208E01A43C8
:100D60008A608A6822F040528A60C26A8B681A439D
:100D70008A608A6822F002028A608A68037E90F89C
:100D8000204042EA43028A604A6884B142F4006229
:100D90004A604A684EF2000322F460424A60426AA6
:100DA000CFF6FF734C6803EB4232224301E022F49A
:100DB00000624A60CA6A40F2000C22F47002CA6201
:100DC000C3694269CFF6F07CCC6A0CEB0353234332
:100DD000CB628B6823F400738B6090F830008B68D3
:100DE00043EA40208860886820F4806088608868D2
:100DF00040EA8220886010BDFEE7000080B540F226
:100E00006C10C2F2000000F03FFB80BD80B540F2E4
:100E1000CC10C2F2000000F037FB80BDD0F800C05B
:100E20006FF00F024AF6AB2352FA8CF2CAF6AA23ED
:100E30000146A2FB0330000905A31B5C40F2FF3012
:100E40002CEA00005F2A88BF0430C1E9160370470E
:100E500000061016000610168269816AB2F5005F5E
:100E600006D06AB9022912D0012914D0D1B90EE0F6
:100E7000032917D8DFE801F0020B020F01207047A9
:100E800003293CBF012070471CBF00207047C06A87
:100E9000C0F300607047C06AA0F1C070B0FA80F083
:100EA000400970470020704780B5D0F800C0D0F8E6
:100EB00008E0DCF80000BEF1400F20F48020CCF800
:100EC00000000846CCF8043004BF10460A46CCF8AF
:100ED0000800CCF80C2080BD7047000072B600BF3F
:100EE000FEE700007047000070B581B0002200925C
:100EF00090F83C20012A01D1022156E00E6801221F
:100F00001FFA86FC80F83C204FEA4C0212FA86F366
:100F100002680A2E32BF10321E3B0C324FF0070E11
:100F200015680EFA03F4A54315608D68146805FA78
:100F300003F3234313604968062906D8026801EBCE
:100F40008101053902F134030AE00C2901EB81012A
:100F5000026887BF413902F12C03233902F13003C3
:100F60001F221C688A4024EA02021A601A680CFADE
:100F700001F1114342F2043E1960C4F2010E01680E
:100F8000122EAEF5417208BF914205D1DEF8003055
:100F900043F48003CEF8003026F00103102B08BF85
:100FA000914205D0002180F83C10084601B070BD88
:100FB000DEF80010102E41F40001CEF80010F1D13F
:100FC00040F21401C2F2000109684DF68362C4F2D6
:100FD0001B32A1FB0212910C01EB8101490000BF01
:100FE000009100990029DDD000990139F8E700004F
:100FF00070470000704700007047000070B504465D
:10100000006806684568B10717D515F0200114D0AF
:10101000216CC90603D4216C41F4007121648168FC
:1010200011F0405F02D1217E002968D02046FFF7F1
:10103000DFFF20686FF012010160700715D515F011
:10104000800012D0206CC00603D4206C40F4005005
:1010500020642068816811F4401F2FD02046FFF7DC
:1010600041FF20686FF00C010160F00718BF15F018
:10107000400013D1B00610D515F0806008BF70BDD8
:101080002068616C6FF0200541F002016164056029
:101090002046FFF7B1FF2068056070BD206800683A
:1010A000C007E7D0206C40F480302064204600F078
:1010B00067F820686FF001010160DBE7816B11F4D4
:1010C000401F02D081684905C8D441684905C5D48C
:1010D000816811F0405FC1D1217E0029BED14168F5
:1010E00021F080014160206C20F480502064206C4D
:1010F000C005B3D4206C40F001002064AEE7C16AA3
:1011000011F4700F03D0816849053FF58FAF416836
:1011100021F020014160206C20F480702064206C5C
:10112000C0043FF583AF206C40F0010020647DE7F0
:10113000B0B510B30446006C30B9204600F022F878
:101140000020606484F83C00206C0125C0060FD4A8
:10115000206C41F202118843023020642046FFF7E0
:10116000C7FD00206064206C65F301000025206449
:10117000002084F83C002846B0BD0120B0BD00002E
:1011800070470000B0B586B00446216842F20012F4
:10119000C4F2010200209142CDE90400CDE9020031
:1011A000019038D042F20000C4F20100814261D1C6
:1011B000002043F644010090C4F202010A6840F2A4
:1011C0006C1542F480720A600968C2F2000501F4ED
:1011D00080710091009946F21041C4F202014FF46F
:1011E0008062C5E90010C5E9020005F11001C5E9FA
:1011F000080028464FF480534FF4804C4FF4807E13
:1012000081E80C5000F006FA002818BFFFF766FED0
:10121000A563AC6326E043F644010090C4F20201EA
:101220000A6842F400720A600A6802F400720092CE
:10123000009A009051F8142C42F0040241F8142C4A
:1012400051F8141C01F00401009100992021019132
:101250000321CDE9021040F60000C4F2020001A90A
:1012600000F086FA12200021002200F0DBFB1220A1
:1012700000F0D4FB06B0B0BD70B582B004460020CB
:10128000019094F83C00012802D1022002B070BD08
:1012900013460A460120216884F83C008868C0078C
:1012A00018D188684DF6836540F00100886040F2EF
:1012B0001400C2F200000068C4F21B35A0FB050553
:1012C000A80C00EB400000BF0190019810B10198FC
:1012D0000138F9E78868C00503D5886820F4807074
:1012E00088608D68206CED0707D140F01000206405
:1012F000606C40F00100606470E040F20175A8434A
:1013000000F5807020644868400504D5206C0125F4
:1013100065F30D302064256C0020ED044FF00005CE
:1013200044BF656C25F00605656484F83C00A06B3D
:1013300040F63D4540F6C94CC0F60005C0F6000C2D
:10134000C0E90F5C40F6B145C0F60005C5646FF01A
:1013500022050D604D6842F2043645F080654D600F
:101360008D68C4F2010645F480758D604C3100F043
:10137000B9F931682068C9060CD0A6F541718842D8
:101380002CD14FF60451CFF6FF71715811F0405F28
:1013900024D11FE042F20001C4F20101884215D0BD
:1013A00042F20021C4F2010188420CD042F2001145
:1013B000C4F20101884211D13168C90606D0A6F5F0
:1013C000827188420AD13168C90607D4816811F058
:1013D000405F03D1816841F080418160002002B00C
:1013E00070BD000070B5866D044600F0A3FA94F855
:1013F0003510022925D105462068216C026822F0AB
:1014000016020260426922F08002426109B9A16CB1
:1014100019B1016821F008010160016821F00101A2
:10142000016000BF20680068C0070ED000F082FA9B
:10143000401B0628F6D320206065032084F8350081
:101440000CE080206065012008E0E06D3F2101FA9A
:1014500000F0B060012084F835000020002184F8FD
:10146000341070BD90F83510022909D1052180F89B
:1014700035100068016821F001010160002070470B
:101480008021416501207047F0B581B004460020FD
:10149000009040F21400C2F200000268D4E9166025
:1014A00048F2B51337680821C1F64E3381403942FE
:1014B000A2FB03250CD0226813685B0708D51368CC
:1014C00023F004031360B160616D41F001016165B7
:1014D00001218140394208D022685269120604D5A0
:1014E000B160616D41F002016165042181403942C2
:1014F00008D022681268920704D5B160616D41F08E
:101500000401616510218140394215D020680268CC
:10151000120711D5B16002680168520306D4C905EB
:1015200006D4016821F00801016001E0080342D4FB
:10153000216C09B120468847E16D202000FA01F2B4
:101540003A4244D020680368DB0640D5B26094F884
:1015500035300268052B1ED122F016020260426966
:1015600022F080024261226C0AB9A26C1AB10268B0
:1015700022F0080202603F208840B060012084F819
:101580003500216D0020002984F8340040D0204629
:10159000884701B0F0BD0168520310D4C90512D4C8
:1015A000016821F010010160012084F8350000205D
:1015B00084F8340007E0A16C0029BBD1BCE7080324
:1015C00001D4616C00E0E16B09B120468847606D91
:1015D000F0B1606DC00717D0052084F83500206891
:1015E000A90A026822F00102026000BF009A0132DB
:1015F0008A42009202D80268D207F7D1012084F80B
:101600003500002084F83400E16C09B12046884799
:1016100001B0F0BD2DE9F041044600F08BF9C4B1F2
:101620000546022084F835000020216884F8340043
:10163000086820F00100086026683068C0070BD0F9
:1016400000F078F9401B0528F6D903212022032059
:1016500042E00120BDE8F081306848F23F01CFF25E
:101660001001251D00EA010C2ECDD4E9050E41EA3A
:101670000C01114319432943D4E90778084340EA90
:101680000E01606A3943042841EA080103D1D4E914
:101690000B231143194331607169042821F00701BC
:1016A00041EA00050CD1D4E90A1045EA010538B138
:1016B0002046FFF7D1FB18B10121402201200BE0A9
:1016C00020467561FFF7AAFBE16D3F2202FA01F1A6
:1016D0008160002201210020626584F83510BDE898
:1016E000F0810000B0B5044690F83400012828D0FD
:1016F000012084F83400A56D94F8350001281DD12F
:10170000022084F83500002060652046FFF7CCFBFE
:10171000E26D3F23206803FA02F2216CAA6002689E
:1017200042F01602026019B1016841F0080101603F
:10173000016841F0010101600020B0BD002084F883
:1017400034000220B0BD0000B0B5044600F0F2F84D
:10175000054640F21800C2F200000078611C18BF74
:10176000044400BF00F0E6F8401BA042FAD3B0BD2D
:101770002DE9F04F83B000F13E4202F1FF724FEAD3
:10178000B22241F600470192C4F2020708224FF04C
:10179000010E00254FF0000A4FF00008B84208BFC4
:1017A000072200920AE000BF08F101080AF1040ACA
:1017B000B8F1100F05F1020500F0A4800C680EFAD4
:1017C00008FB14EA0B09EFD04C6804F0030CACF1F1
:1017D000010EBEF1010F11D80322876802FA05F647
:1017E000CA68B743AA403A4382604268C4F300170C
:1017F00022EA0B0207FA08F73A434260BCF1030FF2
:101800001CD0C26803238E6803FA05F7BA4306FAB0
:1018100005F73A43BCF1020FC2600FD16FF003022B
:1018200002EA580202440AF01C060F23176A03FA60
:1018300006F40B69A743B3403B43136202680323DA
:101840004F68AB409A4307F00303AB401A4317F4C9
:10185000403F4FF0010E0260A6D0002243F6440341
:101860000292C4F202031A6843F6004442F4804232
:101870001A601A68C4F2010402F480420292029AC9
:1018800028F003024FF6084B2244CFF6FF7B52F8B4
:101890000B300AF00C070F26BE4023EA060C019B12
:1018A000009E072B38BF1E4606FA07F747EA0C03CF
:1018B00042F80B30A2684B6842EA090743F60C4C29
:1018C000DE0258BF22EA0907A760C4F2010CDCF867
:1018D00000209E0242EA090758BF22EA0907CCF815
:1018E000007062689E0342EA090758BF22EA0907AE
:1018F00067602268DB0342EA090358BF22EA090352
:10190000236051E703B0BDE8F08F00000069084094
:1019100018BF012070470000426902EA01039143A9
:1019200041EA034181617047002A08BF09048161CF
:101930007047000040F21830C2F2000000687047A3
:1019400040F2180040F21831C2F20000C2F2000169
:1019500000780A68104408607047000080B543F6BC
:101960000040C4F20200016841F4007101600168A6
:1019700041F480610160016841F4807101600320DD
:1019800000F060F80F2000F005F800F02BF80020C0
:1019900080BD0000B0B540F21802C2F2000240F271
:1019A00014011278C2F200014FF47A730968B3FB94
:1019B000F2F20446B1FBF2F1084600F08FFB0F2C67
:1019C0004FF001050CD858B94FF0FF3021460022E6
:1019D000002500F027F840F21C00C2F2000004606D
:1019E0002846B0BD82B0002043F640010190C4F209
:1019F00002014A6842F480424A604A6802F4804226
:101A00000192019A0090086840F0805008600868D0
:101A100000F080500090009802B0704780B501F04F
:101A200087FE80BD70B514460D46064601F090FE57
:101A30002946224601F038F90146304601F090FE71
:101A400070BD000080B501F09DFE80BD2DE9F04124
:101A5000002800F08B8043F60808C4F20208044610
:101A6000D8F8F8030D4600F00700884207D288F83E
:101A7000F853D8F8F80300F00700A84276D12068A0
:101A8000810717D5410705D5D8F8001041F4E0517A
:101A9000C8F80010010705D5D8F8001041F46041DE
:101AA000C8F80010D8F80010A26821F0F001114326
:101AB000C8F80010C0073FD1D8F8F80300F00700BD
:101AC000A84207D988F8F853D8F8F80300F00700BF
:101AD000A8424BD12068410707D5D8F80010E2682A
:101AE00021F4E0511143C8F80010000708D5D8F8D8
:101AF0000000216920F4604040EAC100C8F80000FD
:101B000000F07EF8D8F8001044F62822C1F3031143
:101B1000C0F60002515C40F2140220FA01F140F2DA
:101B20001C00C2F200000068C2F200021160FFF760
:101B300031FF0020BDE8F0816068811E022907D2D4
:101B400058F8081C89015CBF0120BDE8F08110E055
:101B5000012807D158F8081C89035CBF0120BDE8A3
:101B6000F08106E058F8081C890702D40120BDE87E
:101B7000F081D8F8001021F003010843C8F80000F4
:101B8000FFF7D8FE064641F2883700BFD8F80000BC
:101B9000616800F00C00B0EB810F8DD0FFF7CAFE3A
:101BA000801BB842F2D90320BDE8F08140F2140056
:101BB000C2F200000068704780B5FFF7F7FF43F6F8
:101BC0000801C4F20201096844F63822C1F38221F7
:101BD000C0F60002515CC84080BD000080B5FFF730
:101BE000E5FF43F60801C4F20201096844F6382211
:101BF000C1F34231C0F60002515CC84080BD000014
:101C000010B543F60404C4F20204606800F00C014D
:101C100042F200400829C0F2F40007D0042918BF9E
:101C200010BD41F20020C0F27A0010BD216801F021
:101C30003F02216823684902C3F3881105D4A1FB40
:101C400000010023FEF71CFB06E041F20020C0F279
:101C50007A004843B0FBF2F021680222C1F301414F
:101C600002EB4101B0FBF1F010BD00002DE9F041A5
:101C700082B0002800F0A2800446007843F60006F7
:101C8000C007C4F2020643D0B06800F00C0004287C
:101C900005D1306880033BD56068C8BB8EE0B06872
:101CA00000F00C00082802D170684002F1D4656889
:101CB000B5F5A02F0AD0B5F5803F0BD0306820F4E1
:101CC00080303060306820F4802006E0306840F4D6
:101CD00080203060306840F480303060FFF72AFEAA
:101CE000002D054611D000BF3068800310D4FFF7E7
:101CF00021FE401B6428F7D922E100BFFFF71AFE3E
:101D0000401B64284FF0030055D830688003F5D499
:101D1000207880071AD5B06810F00C0F09D0B06891
:101D200000F00C00082840F08A807068400200F142
:101D300086803068800702D5E06801283ED130688F
:101D4000216920F0F80040EAC100306020780007E7
:101D500038D4207840074CD4A5695DB3B06800F052
:101D60000C00082840F09E80012D27D07068E169A2
:101D700000F480028A4221D1216A00F03F028A42A7
:101D80001CD147F6C071626A0140B1EB821F15D1C8
:101D9000A26A0023CFF6FF7303EBC23200F4403196
:101DA0006FF30F02914209D1E16A00F07060B0EB6D
:101DB000016F03D1002002B0BDE8F081012002B024
:101DC000BDE8F0816069002840F20000C4F24720BD
:101DD00057D00121C0F8801EFFF7ACFD054600BFBB
:101DE000706F8007B5D4FFF7A5FD401B0228F7D917
:101DF000A6E0306C10F080580AD100200190306CC1
:101E000040F080503064306C00F0805001900198B8
:101E100047F20007C4F200073868C00524D43868C8
:101E200040F480703860FFF785FD05463868C005CE
:101E30001AD4FFF77FFD401B0228F7D980E0E06845
:101E4000002851D00020C4F2472001210160FFF793
:101E500071FD0546306880073FF571AFFFF76AFDF9
:101E6000401B0228F6D96BE0A568052D50D0012D46
:101E700052D0306F20F001003067306F20F0040046
:101E80004DE00021C0F8801EFFF754FD054600BF5D
:101E9000706F80077FF55DAFFFF74CFD401B022898
:101EA000F6D94DE00027C4F2472700203866FFF737
:101EB00041FD022D05460BD13068800158D5FFF752
:101EC00039FD401B02284FF00300F5D973E700BF2E
:101ED000306880017FF56EAFFFF72CFD401B0228B4
:101EE0004FF00300F4D966E70020C4F24720002138
:101EF0000160FFF71FFD0546306880077FF526AFBC
:101F0000FFF718FD401B02284FF00300F4D952E7F9
:101F1000306F40F004003067306F40F001003067F0
:101F2000FFF708FD002D054641F2883714D000BFA9
:101F3000306F800713D4FFF7FDFC401BB842F7D980
:101F4000032002B0BDE8F081FFF7F4FC401BB8426B
:101F50004FF003003FF62FAF306F8007F4D4B8F195
:101F6000000F7FF4F9AE306C20F080503064F3E65F
:101F700004F11C052FCD08430021CFF6FF7140EA84
:101F8000821001EBC3316FF30F0140EA0560084393
:101F9000706001203866FFF7CDFC04463068800190
:101FA0003FF508AFFFF7C6FC001B02284FF0030007
:101FB000F4D900E770B538B10446406A30B100206A
:101FC000206104F1140007E0012070BD6068B0F5E5
:101FD000827F03D004F11C00002101600026A6626C
:101FE00094F8510020B9204684F8506000F03CF885
:101FF000022084F8510094E80F0001F48271056812
:1020000002F4044225F040050560114403F4006227
:102010002369114403F002026369114403F00102D1
:10202000A369E569114403F40072114405F0380214
:10203000256A114405F08002A56A114305F4005297
:1020400011430160626A042101EA134102F01002A7
:1020500011444160C16921F40061C16101206665DC
:1020600084F85100304670BD80B586B043F200015F
:102070000068C4F20101002288420592CDE90322E2
:102080000292019201D006B080BD43F6300000926A
:10209000C4F20200436943F480534361436903F48B
:1020A00080530093009B0092036843F00103036098
:1020B000006800F0010000900098A020019002202C
:1020C000CDE90202032004900520059001F550405F
:1020D00001A9FFF74DFB06B080BD000080B500F000
:1020E000FDFD80BD7047000070470000002804BF60
:1020F0000120704710B5044690F83D0028B9002033
:1021000084F83C00204600F01FF8022084F83D00CF
:102110002068211D00F078FE012084F8460084F834
:102120003E0084F83F0084F8400084F8410084F8C1
:10213000420084F8430084F8440084F8450084F8A1
:102140003D00002010BD000080B582B0006841F65F
:102150000001C4F20001884201D002B080BD00201D
:10216000019043F64000C4F202000168002241F0F1
:10217000400101600068002100F0400001900198DA
:102180002B20FFF74FFC2B20FFF748FC02B080BD4F
:1021900010B5044690F83C0001284FF0020008BF3B
:1021A00010BD012284F83C2084F83D0020684FF6E1
:1021B000777382689A4382600A684F2A0FDC1F2A6D
:1021C00022DD202A23D0302A21D0402A4DD14B684D
:1021D000CA68194600F0C6FE206840213BE06F2A1D
:1021E00017DDB2F5005F20D0B2F5805F2AD0702AEB
:1021F0003BD1D1E9012CCB68614600F09FFE2068FD
:10220000816841F077011AE00AB1102A2DD11146F8
:1022100021E0502A18D0602A27D14B68CA68194695
:1022200000F0B2FE2068602115E0D1E9012CCB68F6
:10223000614600F083FE2068816841F4804181603E
:1022400000200BE0002009E04B68CA68194600F046
:1022500089FE2068502100F07DFE0020012184F8D5
:102260003D10002184F83C1010BD0120F6E700006D
:1022700070470000B0B504460068C168026902EA10
:102280000105A9071DD4680731D4280747D4E806FB
:102290005CD4E80773D128067BD4680606D520688D
:1022A0006FF040010161204600F084F8A80658BF95
:1022B000B0BD20686FF0200101612046FFF714FFD8
:1022C000B0BD6FF0020101610121217780698007B3
:1022D00003D02046FFF7CCFF05E0204600F064F86D
:1022E000204600F063F8002020776807CDD52068ED
:1022F0006FF00401016102212177806910F4407FB1
:1023000003D02046FFF7B4FF05E0204600F04CF86C
:10231000204600F04BF8002020772807B7D520682A
:102320006FF00801016104212177C069800703D0A3
:102330002046FFF79DFF05E0204600F035F82046D7
:1023400000F034F800202077E806A2D520686FF06E
:102350001001016108212177C06910F4407F03D08A
:102360002046FFF785FF05E0204600F01DF82046D7
:1023700000F01CF800202077E8073FF48CAF2068BD
:102380006FF001010161204600F012F828067FF588
:1023900084AF20686FF0800101612046FFF7A2FE44
:1023A00068067FF583AF7AE770470000704700004A
:1023B000704700007047000070B582B0044690F886
:1023C0004200202822D100294FF0010518BF002A21
:1023D0001DD00125002620462563666301F0DAF84A
:1023E000206B012813D10196206801680191406893
:1023F00001900198206850E8030F216840F0100018
:1024000041E80302002AF5D1002500E00225284614
:1024100002B070BD006841F20002C4F201029042B5
:1024200018BF704740F29200C2F20000017170477D
:1024300010B582B0044600F031F8C0070ED1204636
:1024400000F02CF8800709D4204600F027F8400758
:1024500004D4204600F022F8000707D500200190A0
:10246000206801680191406801900198206841F25C
:102470000001C4F20101884201D002B010BD40F257
:102480009200C2F20000C11D40F2CC20C2F2000056
:102490004022FFF791FF02B010BD0000406C704772
:1024A000B0B582B0036804461868D9685A6900F06C
:1024B0002F05202D01F0200505D125B1204600F083
:1024C00097FF02B0B0BD5FEA007C1EBF02F0010EB4
:1024D00001F4907212EB0E024AD1226B0840C10641
:1024E0003DD5012A3BD10020019018680190586821
:1024F000019001985869400642D4A08DE18DE28D8B
:10250000002A1CBF401A5FEA004101D102B0B0BDF1
:10251000216851E8031F226821F4907142E80313F7
:10252000002BF5D1216851E8051F226821F0010137
:1025300042E80513002BF5D1202184F84210002138
:10254000216300BF216851E8031F226821F01001B8
:1025500042E80313002BF5D10221616354E0010628
:1025600058D44006D2D5204600F0C8FD02B0B0BD18
:10257000C20718BF11F4807251D1420755D45BE0F5
:10258000E06B016849688AB2002ABFD0A38D9A42E5
:10259000BCD2E185C069B0F5807F30D0206850E8BA
:1025A000030F216820F4807041E80302002AF5D16E
:1025B000206850E8050F216820F0010041E805027D
:1025C000002AF5D1206850E8050F216820F040006E
:1025D00041E80502002AF5D1202084F842000020BD
:1025E000206300BF206850E8030F216820F010002E
:1025F00041E80302002AF5D1E06BFEF7F3FE02206A
:102600006063A08DE18D401A81B22046FFF702FF82
:1026100002B0B0BD204601F009F802B0B0BD626C56
:1026200042F001026264420706D5BEF1000F03D0FA
:10263000626C42F002026264820706D5BEF1000FAE
:1026400003D0626C42F004026264BCF1000F06D554
:102650005EEA050203D0626C42F008026264626CBA
:10266000002A3FF453AF0840800602D5204600F010
:10267000BFFE20684069616C00F0400001F0080175
:10268000401827D0204600F011FD20684069400620
:102690001BD500BF206850E8050F216820F04000DE
:1026A00041E80502002AF5D1E06B70B142F6AD7148
:1026B000C0F600010165FEF7D5FE00283FF426AF05
:1026C000E06B016D884702B0B0BD2046FFF7B0FE59
:1026D00002B0B0BD2046FFF7ABFE0020606402B040
:1026E000B0BD0000002804BF0120704710B50446AB
:1026F00090F8410028B9002084F84000204600F0FE
:1027000021F8242084F841002068C16821F4005198
:10271000C160204600F0D0FE2068016921F490419C
:102720000161416921F02A014161C16841F4005110
:10273000C16000202021606484F8411084F84210B8
:10274000606310BD70B586B0044641F20000216898
:10275000C4F20100002681420596CDE90366029687
:10276000019601D006B070BD43F630010096C4F268
:1027700002014A6900F5704042F010024A614A695C
:1027800002F010020092009A00960A6842F00102DC
:102790000A60096801F00101009100994FF4C061DD
:1027A00001910221CDE9021603210491072105912F
:1027B00001A9FEF7DDFF40F2CC1546F24040C2F21F
:1027C0000005C4F202004FF000614FF4806285E81A
:1027D00043002846C5E90362C5E90566C5E9076601
:1027E0006E62FEF717FF002818BFFEF777FB252063
:1027F00000210022E563AC63FFF714F92520FFF701
:102800000DF906B070BD0000704700007047000071
:102810002DE9F041044690F8410020281CBF022019
:10282000BDE8F0810E4600294FF0010042D0174666
:10283000002A08BFBDE8F0814FF0000821201D46A6
:10284000C4F8448084F84100FFF774F8A784E78453
:10285000A1680746B1F5805F0DD12069002814BF3B
:102860003046B046064606E016F8010B216848607F
:10287000E08C0138E084E08C80B1204680213A462B
:102880002B4600F0FDFEB8B9002EEDD138F8020B52
:1028900021686FF35F2048600026E9E72046402169
:1028A0003A462B4600F0ECFE202184F84110002827
:1028B00018BF0320BDE8F081202084F841000320E8
:1028C000BDE8F08170470000FEE7000080B51420ED
:1028D00000F014F8012818BF80BD40F2CC20C2F2ED
:1028E000000003A10A22FA23FFF792FF80BD00BF78
:1028F0004B3150726573730D0A00000070B50024EF
:10290000C4F20204054620460121FEF7FFFF01281C
:102910001FD140F28E06C2F200063078C8B940F2EC
:102920008C00C2F20000018829448AB2AA420180C8
:102930009CBF002070BD204601210125FEF7E6FF67
:10294000012806D1204601213570FEF7DFFF01285E
:1029500006D020460121FEF7D9FF4FF0000508B14F
:10296000284670BD40F28E00C2F20000057040F2B1
:102970008C00C2F200000580284670BD10B51446D8
:10298000FEF7CAFF2046FEF7DFFE10BD80B500222D
:10299000FEF7CAFF80BD000080B50122FEF7C4FF2C
:1029A00080BD000080B5FEF7B1FF0138B0FA80F0BD
:1029B000400980BD80B5FEF7AFFF80BD10B584B083
:1029C00040F2DC0001220021C2F2000042F2000CC1
:1029D000C0F60072C4F2010C4FF400330124C0E9C8
:1029E0000A210222CDE90211CDE90011047680F816
:1029F0002010C26180F83040C0E900C3C0E9021174
:102A0000C0E90444FEF794FB002818BFFEF766FAFD
:102A10001020CDE900040620029040F2DC00C2F252
:102A200000006946FEF760FA002818BFFEF756FA64
:102A3000112000900220019040F2DC00C2F2000060
:102A40006946FEF751FA002818BFFEF747FA04B0AE
:102A500010BD0000B0B584B040F2241042F2001165
:102A600001230024C2F20000C4F20101C0F6007389
:102A70000125CDE90244CDE900444FF4003204764B
:102A800080F82040C0E90A34C56180F8304080E811
:102A90001600C0E903444561FEF74AFB002818BF51
:102AA000FEF71CFA0F20CDE9000540F22410C2F217
:102AB000000069460294FEF717FA002818BFFEF7D7
:102AC0000DFA04B0B0BD000080B582B000200190C6
:102AD00043F63000C4F202000168002241F4800194
:102AE00001600068002100F4800001900198382006
:102AF000FEF798FF3820FEF791FF3A2000210022D0
:102B0000FEF790FF3A20FEF789FF02B080BD00007B
:102B10002DE9F04387B0002643F630000696CDE954
:102B20000466CDE902660196C4F20200016840F233
:102B3000004441F0800101600168C4F2020401F028
:102B400080010191019901960168002241F0010183
:102B5000016001684FF0040801F001010191019941
:102B60000196016841F004010160016801F004016F
:102B7000019101990196016841F00201016000682C
:102B8000042100F00200019001982046FEF7CCFEDF
:102B900002AD4FF001090227A4F580602946CDE976
:102BA00002960497FEF7E4FD20462946CDE9028906
:102BB000CDE90476FEF7DCFD07B0BDE8F083000048
:102BC00080B540F22C2043F20001C2F20000C4F2B2
:102BD00001014FF4827200234FF4007C80E80E0064
:102BE0000A21C0E90333C0E9053CC361C0E90833E9
:102BF000C0E90A31FFF7DEF9002818BFFEF76EF9C9
:102C000080BD000080B584B040F2842041F600020F
:102C10000021C2F20000C4F2000253234FF6FF7CF1
:102C2000CDE90211CDE90011C0E90023C0E9021C81
:102C300001618161FFF75AFA002818BFFEF74EF9CB
:102C40004FF48050009040F28420C2F200006946A8
:102C5000FFF79EFA002818BFFEF740F904B080BDC8
:102C600010B540F2CC2441F20000C2F20004C4F2DC
:102C700001004FF4E13100220C2384E807002046D4
:102C8000C4E90322C4E90532E261FFF72BFD002805
:102C900018BFFEF723F920680168406810BD0000E6
:102CA000FEE70000FEE7000000F0070080F00703E9
:102CB000042B28BF04234FF0FF3C03380CFA03F326
:102CC00038BF0020994381400CFA00F022EA00004E
:102CD000084370477047000070470000B0B50138E6
:102CE0000024B4EB106F1CBF0120B0BD4EF21005E4
:102CF000CEF2000568604FF0FF300F2100F030FD8C
:102D00000720AC6028602046B0BD000080B5FEF70B
:102D100017FE40F29000C2F20000018840F2E73353
:102D200001318AB29A42018038BF80BD0021018002
:102D300040F21430C2F2000001880131018080BDF0
:102D400070B592B006AC20463021FDF7ACFB0025F3
:102D500043F640000595CDE90355CDE901550095B1
:102D6000C4F202000168022641F08051016000684F
:102D700000F080500090009847F200000095C4F2E7
:102D80000000016841F4804101600068A82100F45E
:102D9000804000900098012006904FF4803007900A
:102DA0004FF480000D9004200E90119020460C9658
:102DB000CDE90F16FEF75AFF88B90F20CDE90106BD
:102DC0004FF4A05004904FF48050059001A80521C5
:102DD0000395FEF73BFE002804BF12B070BDFEF75E
:102DE0007DF800004EF68850CEF20000016841F4F4
:102DF000700101607047000080B540F28420C2F28B
:102E00000000FFF737FA80BD10B540F6FF3E0368BB
:102E1000C4F2000E40F2004C7045C4F2010C0FDC0D
:102E2000B0F1804F19D040F20042C4F2000290424B
:102E300013D040F60002C4F2000290420DD010E020
:102E400040F60042C4F20002904206D0604504D031
:102E50000022C4F20102904203D14A6823F07003B9
:102E6000134341F6FF72C4F2000290420DDC70453C
:102E70001FDCB0F1804F41D040F20042C4F20002AA
:102E800090423BD040F6000221E043F6FF72C4F2CC
:102E90000102904220DC42F20002C4F200029042A1
:102EA0002CD00022C4F20102904227D0604525D0E8
:102EB00028E040F60042C4F2000290421ED041F6E3
:102EC0000002C4F20002904218D041F60042C4F25F
:102ED0000002904212D015E044F20002C4F2010256
:102EE00090420BD044F60002C4F20102904205D099
:102EF00044F20042C4F20102904203D1CA6823F4B2
:102F00004073134323F080024B69D1F800E08C68D2
:102F10001A430260C46240F48062C0F828E062454F
:102F200004BF09690163012141610169C90708BF43
:102F300010BD016921F00101016110BDD0F808C088
:102F400011432CF47F4C41EA032141EA0C018160DA
:102F500070470000826822F07002114341F00701BF
:102F600081607047D0F820C0036A23F00103036238
:102F7000836923F0F00343EA02122CF00A03194399
:102F80008261016270470000D0F820C0036A23F01C
:102F900010030362836923F4704343EA02322CF086
:102FA000A00343EA011182610162704780B5806B22
:102FB0000021C185C184FFF73BFA80BD10B5846B49
:102FC0002068406994F84110212907D110F0800051
:102FD00004D00020E084204600F09CF8206840697E
:102FE00094F84210222907D110F0400004D00020AC
:102FF000E085204600F05AF8606C40F010006064F4
:103000002046FFF715FA10BD80B50168806B09688E
:10301000C9052FD40021C185016851E8031F02684A
:1030200021F4807142E80313002BF5D1016851E8C7
:10303000051F026821F0010142E80513002BF5D1BC
:10304000016851E8051F026821F0400142E80513BC
:10305000002BF5D1202180F84210016B012909D104
:10306000016851E8031F026821F0100142E80313D0
:10307000002BF5D100214163016B012903D1818D22
:10308000FFF7C8F980BDFFF7BFFB80BD80B5806B3F
:1030900001214163016B012904D1818D4908FFF7AA
:1030A000B9F980BDFFF7B2FB80BD0000016851E8AF
:1030B000031F026821F4907142E80313002BF5D13D
:1030C000016851E8051F026821F0010142E805137B
:1030D000002BF5D1016B01290AD100BF016851E82D
:1030E000031F026821F0100142E80313002BF5D101
:1030F000202180F8421000210163704780B50168EB
:10310000CA6822F04002CA60202180F84110FFF70F
:10311000D9FB80BD016851E8031F026821F0C0019E
:1031200042E80313002BF5D1202180F841107047AD
:1031300070B584B040F29205C2F2000528790428E7
:103140001FD32844417978291BD18079792818D157
:10315000E879732813D1287A632810D1687A40F26D
:10316000004440F20006C4F202044628C2F20006FF
:1031700009D0542809D04E280BD1326806E000202F
:10318000287104B070BD726800E0B2682046042166
:1031900090473269204604219047A97A4139152980
:1031A00000F2A080DFE801F00B9E9E9E9E9E9E9EF8
:1031B0009E9E9E679E9E9E9E9E9E9E309E7040F20C
:1031C0008000C2F20000006801F05EF99FED580B2C
:1031D00053EC102B00F0FEFF9FED570B53EC102B20
:1031E00001F066F900F01CFF01F04EFB6C46024650
:1031F0000B465BA12046FDF7BBF840F2CC20C2F2A3
:10320000000021460E226AE040F28400C2F2000073
:10321000006801F039F99FED460B53EC102B00F0DC
:10322000D9FF9FED470B53EC102B01F041F99FEDB7
:10323000460B53EC102B00F025FF9FED450B53EC94
:10324000102B00F0C7FF9FED440B53EC102B00F048
:1032500019FF00F0E5FE01F017FB6C4602460B4635
:1032600047A12046FDF784F840F2CC20C2F20000CE
:1032700021460C2233E060B3012833D140F2CC2048
:10328000C2F2000046A129E040F28400C2F2000030
:10329000406801F0F9F89FED260B53EC102B00F07D
:1032A00099FF9FED250B53EC102B01F001F900F075
:1032B000B7FE01F0E9FA6C4602460B462CA1204607
:1032C000FDF756F840F2CC20C2F200002146102251
:1032D00005E040F2CC20C2F200002CA11222FF2314
:1032E000FFF796FA687A3F2802D0A87A3F281BD1C8
:1032F00040F2CC24C2F200042EA120460C22FF236F
:10330000FFF786FA2FA120460F22FF23FFF780FA4E
:1033100030A120461022FF23FFF77AFA31A1204680
:103320000B22FF23FFF774FA0020287104B070BD50
:103330000000000000FEAF406666666666660A40F2
:103340000000000000C8A9400000000000C087C0C5
:1033500000000000000004400000000000003940B0
:10336000414443494E3A252E3266560D0A0000006C
:1033700056524546494E543A252E3266560D0A009D
:1033800054656D703A252E31660D0A004C45443166
:10339000205374617475733A4F66660D0A0000001D
:1033A0004C454431205374617475733A4F6E0D0A65
:1033B0000000000048656C703A73633F3F78790DF8
:1033C0000A0000002773272763272E2E2778272738
:1033D000792700000D0A2E313A4C45443A4E2F4FC2
:1033E0002F5400000D0A2E323A4C2F542F56000055
:1033F00080B582B090F8421022291ED18268B2F5C1
:10340000805F02D1016900294AD0816AB2F5805FEC
:1034100007D00AB9026922B10268526802F07F023D
:1034200001E0026852680A700121826A11448162D7
:10343000C18D01390A04C18501D002B080BD016887
:10344000CA6822F02002CA60CA6822F48072CA6088
:103450004A6922F001024A61202180F842100021CD
:103460004163026B012A23D1016300BF016851E867
:10347000031F026821F0100142E80313002BF5D16D
:1034800001680A68D20606D5002201920A680192F4
:10349000496801910199818DFEF7BCFF02B080BDA2
:1034A0000168826A49686FF35F2111800221BCE7DD
:1034B000FFF7AAF902B080BD10B504460068D4E950
:1034C00002C22369016921F440511143016162691B
:1034D00043EA0C01E3691143C268194349F20C63E2
:1034E0009A431143C1604169A26921F4407141F2DC
:1034F0000043114340F48062C4F201039A424161E7
:1035000002D1FEF76BFB01E0FEF756FBE169636851
:103510001922B1F5004FA0FB02011CD15A00DB0FAC
:10352000FCF7AEFE48F21F51C5F2EB11A0FB0123E0
:103530005A096FF0630302FB0300322303EBC00060
:10354000A0FB01014FF4F87000EA111000EB02102B
:10355000C1F342111AE09A009B0FFCF791FE48F26A
:103560001F51C5F2EB11A0FB01235A096FF0630351
:1035700002FB0300322303EB0010A0FB0101F0204B
:1035800000EA511000EB0210C1F343112268084316
:10359000906010BD70B582B013460026044681626B
:1035A00083854664222084F842000A462168E06B45
:1035B00043F2090C43F28D0E42F6BD75C0F6000CC5
:1035C000C0F6000EC0F600050431C0E90FCEC0E918
:1035D0001356FEF787F8019620680168019140684C
:1035E00001900198206948B1206850E8030F2168D4
:1035F00040F4807041E80302002AF5D1206850E8C9
:10360000050F216840F0010041E80502002AF5D1CC
:10361000206850E8050F216840F0400041E80502AD
:10362000002AF5D1002002B070BD000090F84110D2
:10363000212923D18168B1F5805F01D1016931B1C0
:10364000016A02684B1C03620978516007E0016A55
:10365000036831F8022B6FF35F225A600162C18C5C
:1036600001390A04C18418BF70470068C16821F09D
:103670008001C160C16841F04001C1607047000035
:103680002DE9F04182B00446006800680840884295
:1036900003D1002002B0BDE8F0811D460E469046E1
:1036A0005F1C04E0206800683040B04228D0002F42
:1036B000F8D0FEF73FF901464FF003000DB3A1EB40
:1036C0000801A9421DD82068C1684907EAD5402EE3
:1036D000E8D0802EE6D001680907E3D500250195E2
:1036E000016801914068019001982046FFF7DEFCD7
:1036F0000820606484F84050012002B0BDE8F081E9
:10370000002002B0BDE8F08110B540F2CC24C2F236
:1037100000042046FEF7C4FE40F29200C2F2000010
:10372000C11D20464022FEF747FE10BDFEE7000007
:10373000002848BF704700F01F01012202FA01F182
:103740004EF200124009CEF2000242F820107047FB
:103750004EF60C50CEF200000068C0F30220704715
:103760004EF6145300F00F02CEF2000309011A4482
:1037700000F16043B0F1FF3FC8BF03F56442117030
:10378000704700004EF60C51CEF200010A684FF669
:10379000FF031A4060F30A2242F0806040F0FD709F
:1037A00008607047FEF7DAF8FFF7CAFAFFF7B0F9DA
:1037B000FFF78AF9FFF754FAFFF700F9FFF722FA4B
:1037C000FFF748F9FFF7FCF940F29200C2F200005F
:1037D000C11D40F2CC20C2F200004022FEF7ECFDF9
:1037E000E8B940F2DC0040F28401C2F20000C2F20B
:1037F00000010222FDF740FD88B940F2241040F29A
:103800008001C2F20000C2F200010122FDF734FD86
:1038100028B900BFFFF75AF8FFF78AFCFAE7FDF76F
:103820005DFB5FEA400C08BF91F0000F4FEA8C236C
:103830004FEAC12243EA51514FEA1C5018BF00F52C
:10384000F0404FEA300018BF41F000415FEA6C5C85
:1038500000F02980BCF1FF3F08BF40F08040704776
:10386000130C06BF12044FF0100C4FF0000C130E97
:1038700004BF12020CF1080C130F04BF12010CF16B
:10388000040C930F04BF92000CF1020CD30F04BF81
:1038900052000CF1010C11464FF00002A0F11F0084
:1038A000A0EB0C00704711F0004F08BF704731F0DB
:1038B00000413FF4D5AF0B0C06BF09044FF0100CCC
:1038C0004FF0000C0B0E04BF09020CF1080C0B0F9B
:1038D00004BF09010CF1040C8B0F04BF89000CF12B
:1038E000020CCB0F04BF49000CF1010CCCF12003FA
:1038F00022FA03F341EA030102FA0CF2A0EB0C00F6
:1039000000F101007047000023F07F4720F07F4C5A
:1039100080EA030000F00040ACEB070303F57C53A2
:1039200003F1FF032DE9804909B44FEA144324EA67
:1039300003484FEA154B25EA0B4E0FF2042606EB1F
:1039400013273E7803FB0667C7F5000707FB06F65B
:103950004FEAD64606F102064FEA543707FB066CDB
:10396000CCF1005C4FEA1C472CEA074C0CFB06F537
:1039700007FB06F404EB15464FEA961649085FEA82
:10398000320234BF00204FF000404FEAD13706FB2F
:1039900007FC4FEA1C4C0CFB0BF7D21B03FB0CF78C
:1039A00061EB07010CFB0EF7B0EB074072EB17421F
:1039B0000CFB08F734BFA2EB0742B2EB074261EB06
:1039C00017414FEA0C444FEA910706FB07FC4FEA08
:1039D0001C4C0CFB0BF7B0EBC74072EB573203FBF0
:1039E0000CF734BFA2EBC742B2EBC74261EB5731D1
:1039F0000CFB0EF7B0EBC70072EB57720CFB08F72D
:103A000034BFA2EBC702B2EBC70261EB57714FEABA
:103A1000816141EA92114FEA826242EA90124FEAD2
:103A2000806004EBCC04039F4FEAD13706FB07FC10
:103A30004FEA1C4C0CFB0BF7D21B03FB0CF761EBA2
:103A400007010CFB0EF7B0EB074072EB17420CFBC3
:103A500008F734BFA2EB0742B2EB074261EB174114
:103A60004FEA8C5504EB9C244FEA910706FB07FCB8
:103A70004FEA1C4C0CFB0BF7B0EBC74072EB573214
:103A800003FB0CF734BFA2EBC742B2EBC74261EBBA
:103A900057310CFB0EF7B0EBC70072EB57720CFB03
:103AA00008F734BFA2EBC702B2EBC70261EB577154
:103AB0004FEA816141EA92114FEA826242EA901232
:103AC0004FEA806015EB4C2544F100044FEAD137F2
:103AD00006FB07FC4FEA1C4C0CFB0BF7D21B03FB4D
:103AE0000CF761EB07010CFB0EF7B0EB074072EB34
:103AF00017420CFB08F734BFA2EB0742B2EB0742B8
:103B000061EB17414FEA813141EA92414FEA82323B
:103B100042EA90424FEA80304FEA0C7615EB1C15D2
:103B200044F1000448EA03434EEA0B484FF0000E0C
:103B3000B2EB080C71EB030724BF624639464EEB2B
:103B40000E0E4FF0000B0018524149414BEB0B0B8E
:103B5000B2EB080C71EB03077BF1000B24BF62464C
:103B600039464EEB0E0E4FF0000B00185241494102
:103B70004BEB0B0BB2EB080C71EB03077BF1000B6B
:103B800024BF624639464EEB0E0E51EA020718BFBB
:103B900046F0010616EB0E7655F1000254F10001D5
:103BA00003D5BDE88901BDE80088BDE88901BDE80D
:103BB0000048B619524141EB0101A3F101037047DE
:103BC00080807F7E7D7C7B7A79787776767574735A
:103BD000727171706F6E6E6D6C6C6B6A6A69686819
:103BE000676666656464636362616160605F5F5EAF
:103BF0005E5D5D5C5C5B5B5A5A5959585857575625
:103C00005655555554545353525252515150505089
:103C10004F4F4F4E4E4D4D4D4C4C4C4B4B4B4A4ADB
:103C20004A4949494848484747474746464645451F
:103C30004544444444434343434242424241414158
:103C40009C46002B30D477002BD04FEA37071CB5A9
:103C500003B44FF010004FF01001BAF1000F06D07E
:103C6000BCF1000FDCBF40F0080040F008014FF04D
:103C700000000FBCBDE810400BF1010BBBF1010FC0
:103C800008BF5FEA170722BF12F1010211F101011B
:103C90004FF0004143F1000300F0004043EA000010
:103CA0007047F9D35708D0E746EA06464FEA16466A
:103CB00013F1400F1FDD13F1200FDFBF16430A463B
:103CC000002120335B42BED0C3F1200746EA0646FE
:103CD0004FEA164602FA07F746EA070622FA03F207
:103CE000C3F1200701FA07F742EA070221FA03F1BC
:103CF0004FF00003A7E746EA020646EA06464FEA07
:103D0000164646EA0106BCBF46EA0646360C4FF0A8
:103D100000034FF000024FF0000194E72DE9804CC2
:103D200070B49A46934691E8380007C831EA400CCF
:103D300048BF34EA430C03D5FFF7E6FDFFF780FFE9
:103D4000F0BCBDE8008C2DE9804C70B49A469346D7
:103D500091E8380007C810F0804F08BF13F0804F7B
:103D600003D100F005F8FFF76BFFF0BCBDE8008C55
:103D700020F07F4723F07F4C80EA030000F00040F2
:103D800007EB0C03A3F57C53A3F1FE0392F0000FA5
:103D900000F0B38095F0000F00F077802DE9014925
:103DA0004FEA114021EA00484FEA144624EA064748
:103DB00000FB06FC08FB06F607FB08F818EB0648B4
:103DC0004CEB164C00FB07F718EB07484CEB174081
:103DD0004FEA124B22EA0B4E4FEA154625EA0647F8
:103DE0000BFB06FC0EFB06F607FB0EFE1EEB064E5B
:103DF0004CEB164C0BFB07F71EEB074E4CEB174B2F
:103E000018EB0B0840F1000018EB0E0B58EB000804
:103E100040F100008F1A4FF000014FF000063CBF48
:103E2000C943661B14BFB5EB040C00213CBFC9435A
:103E3000F61B4FEA174427EA04454FEA1C472CEAD1
:103E4000074C04FB076205FB07F70CFB05F616EBB6
:103E5000074642EB174204FB0CFC16EB0C4642EB08
:103E60001C421BEB060658EB020241414EEA8E0E45
:103E700046EA9E0601D5BDE80189B619524141EBDB
:103E80000101A3F10103BDE801894FEA144524EAC9
:103E900005464FEA114721EA074C05FB07F406FBEC
:103EA00007F70CFB06F111EB074144EB174405FB48
:103EB0000CFC11EB0C4144EB1C444FEA124722EA84
:103EC000074C05FB07F206FB07F70CFB06F616EBA3
:103ED000074642EB174205FB0CFC16EB0C4642EB87
:103EE0001C456A1854F1000148BF7047B619524189
:103EF00041EB0101A3F10103704795F0000F37D0AA
:103F00004FEA114221EA02464FEA144724EA074CDD
:103F100002FB07F106FB07F70CFB06F414EB074462
:103F200041EB174102FB0CFC14EB0C4441EB1C4130
:103F30004FEA154725EA074C02FB07F506FB07F792
:103F40000CFB06F616EB074645EB174502FB0CFC8F
:103F500016EB0C4645EB1C42121951F1000148BF0B
:103F60007047B619524141EB0101A3F101037047BB
:103F70004FEA144524EA05464FEA114721EA074C67
:103F800005FB07F106FB07F70CFB06F212EB0742F5
:103F900041EB174105FB0CFC12EB0C4251EB1C41B1
:103FA0004FF0000648BF7047921841EB0101A3F1A2
:103FB0000103704703B401984100009850EAC12002
:103FC00018BF04204A0D18BF40F0010040F2FF72F4
:103FD000B2EB515F08BF40F00200012808BF052086
:103FE00002B0704730380A2801D201207047002003
:103FF0007047000010B500290AD00878002807D0C3
:1040000005487844FCF7D4FD002801D0002010BDFD
:104010000248784410BD00005E0A0000560A000005
:1040200021F0004201F00043A2F16052B2F5801F7E
:1040300028BFD2F17F6C0BD95FEA001C43EAC202B1
:1040400042EB507018BF704728BF20F00100704746
:10405000B2F5801FBCBF184670474FEA410C1CF5F3
:10406000001F02D2084600F08DBC70B500F0CAFAFD
:1040700000000089FFF7F6BF4FF00040A0F5800078
:104080007047000010B591EA030F48BF83F000436A
:1040900000F11483841A71EB030C05D2121943EB5F
:1040A0000C03001B61EB0C014FEA1154A4EB135CF1
:1040B000DFF81CE11EEA430F18BF9EEA445F00F0E0
:1040C000748021EA045123EA0E0343F48013DCF1E7
:1040D000200E32D322FA0CFE10EB0E0023FA0CFE57
:1040E00041EB0E01CCF1200E03FA0EFE10EB0E0098
:1040F000CCF1200E51F10001B1F5801F32D201EB5D
:10410000045112FA0EF2BDE8104058BF7047401C2F
:1041100038BF5FEA420218BF7047002814BF20F082
:10412000010041F100014FEA410313F5001F38BFC0
:104130007047A1F1C04100F0B3BA012A43EB03027A
:10414000ACF1200CDCF11F0E32BF4FF0000E23FA51
:104150000CF310EB030041EB0451B4EB115FD0D032
:10416000A1EB045101F58011490801EB04515FEA0C
:1041700030000ED350F1000038BF12FA0EFE08D105
:10418000BDE81040C9E7401C38BF5FEA4202CAD10F
:10419000C3E7BDE810404FEA410313F5001F38BFE5
:1041A0007047A1F1C04100F07BBA9EEA445F08D09D
:1041B00011EA5E0FBDE8104004BF01F0004100208D
:1041C0007047BDE8104070B500F01CFA64FBBE3EBD
:1041D0000000E0FF2DE9C04130B4DFF8A4C23CEAA2
:1041E000111418BF3CEA131400F0ED801CEA1114FE
:1041F00081EA030544EAD57418BF1CEA131500F0E0
:10420000C880A4EB050404F17F7404F500344FF07A
:10421000004545EAC12145EAC32341EA505143EA3A
:1042200052534FEAC0204FEAC222994208BF90423F
:1042300000F09D804FEA13650FF24416765D4FEA59
:10424000134506FB05F7C7F1807706FB07F74FEA32
:10425000D737A7FB03687642A7FB06CEC8F58038A0
:1042600038BFA8F1010807FB08E6A6FB028C4FF057
:10427000000EE6FB03CEDCF1000CCEF1004E38BFA1
:10428000AEF1010EA6FB0C584FF00007E6FB0E87BF
:10429000A1FB08C6A0FB07CE16EB0E064FF00005EB
:1042A00045F10005E1FB076515F1E04E7EBFA4F581
:1042B00080345FEA46066D4116F1800745F100053E
:1042C0004FEA172747EA05674FEA15254FEA0666C2
:1042D000A6F1DE46B6F1805F20D9384605EBC47101
:1042E00024F0010C01EB0C11BCF1FE6F02D8F0BC04
:1042F000BDE8008124425CBF01F5801E9EEAC47FB8
:1043000002D4F0BCBDE80081244200F13980A1F163
:10431000C041F0BCBDE8004100F0C2B94FEAD02076
:1043200040EA41504FEAD1214FEAD22242EA4352B9
:104330004FEAD323A7FB028607FB036605FB026651
:104340001EEA0E0F58BFA6EB0056B6EB00564FEA1A
:10435000520E4EEAC37E18EB0E0E56EB530EBCD532
:1043600018EB02085E417F1C55F10005B5E74FF4DC
:1043700080154FF000074FF000064FF00008ACE743
:1043800001F1C04101F000414FF00000F0BCBDE878
:1043900000810CEA131511EA0C1F00D00CE013EA9F
:1043A0000C1F00F026804FF0000081EA030101F0AD
:1043B0000041F0BCBDE80081F0BCBDE8004181EAED
:1043C000030100F06DB9F0BCBDE8004170B500F02C
:1043D00019F900BF097EFC3E00F007B84FF000005D
:1043E00081EA030101F00041704781EA030100F016
:1043F00057B9F0BCBDE8004122494FF000007047BA
:10440000FFFDFBF9F7F5F4F2F0EEEDEBE9E8E6E499
:10441000E3E1E0DEDDDBDAD8D7D5D4D3D1D0CFCD20
:10442000CCCBCAC8C7C6C5C4C2C1C0BFBEBDBCBB59
:10443000BAB9B8B7B6B5B4B3B2B1B0AFAEADACAB54
:10444000AAA9A8A8A7A6A5A4A3A3A2A1A09F9F9E2E
:104450009D9C9C9B9A9999989797969595949393E0
:10446000929191908F8F8E8E8D8C8C8B8B8A898977
:1044700088888787868585848483838282818180FA
:104480000000FF070000F87FB0FA80F310FA03F194
:104490000AD0C3F11D0303F580634FEA03524FEACC
:1044A000415002EBD12170474FF0000070470000EF
:1044B00070B5DFF848C11CEA111E1EBF1CEA1315B7
:1044C0009EEA0C0F95EA0C0F00F06F8081EA03045E
:1044D0004EEAD47EAE4421EA4C1123EA4C1341F457
:1044E000801143F48013AEF17F7EA1FB024CA0FB50
:1044F0000365361955EB0C05A1FB034C4CF1000389
:10450000A0FB021C16EB0C06654153F100030942A7
:1045100018BF46F0010613F4007F0BD14FEA0331B8
:104520004FEA053041EA155140EA165034036FF066
:1045300003020AE04FEAC3214FEAC52041EA555180
:1045400040EA5650F4026FF0020202EB2E4201EBF9
:10455000025585EACE710AD05FEA440C18BF24F0F8
:10456000004450F1000041F1000120EAD47040F213
:10457000FE7C624500D270BDA84214BF4FF080445B
:104580004FF04044002E08BF0024BEF1806FA8BF4A
:10459000A1F1C041BDE8704080F2828001F1C041CC
:1045A00001F000414FF0000070470CEA13159EEA3D
:1045B0000C0F18BF95EA0C0F06D081EA030E4FF0DE
:1045C00000000EF0004170BD00F01CF88900013EB3
:1045D00000F007B800F009B84FEA430C5FEA5C5CF2
:1045E00008D081EA030100F05BB84FEA410C5FEAB2
:1045F0005C5CF6D102494FF0000070470000FF07F5
:104600000000F87F0EF1020E2EF0030E5EF8046B30
:10461000364205D4012A43EB030515F5001F12D8D5
:10462000012841EB010C1CF5001F0CD80ED14FEAFC
:10463000D17C0CEB4C0C0CF1020C15F5001F08BFE3
:104640004CEBD37C04E04FF0080C01E04FEAD37C44
:104650000CEB4C0526FA05F606F00706B6F1040C3D
:1046600006D20EEB860CBDE870404CF0010C6047A2
:10467000DFE80CF0090B02024FF00041A1F5002128
:104680004FF0000070BD19461046012851EB01049F
:1046900018BFD4F5001484BF002001F0004170BDA4
:1046A0000808A0F500114FEA3101704710B591EAF2
:1046B000030F48BF83F000433FF5ECAC841A71EB65
:1046C000030C07D28CF0004C121943EB0C03001BB7
:1046D00061EB0C014FEA1154A4EB135CDFF8A4E189
:1046E0001EEA430F18BF9EEA445F00F0B48021EA3F
:1046F000045123EA6E035242C3EB6E0338BF5B1EC4
:10470000DCF1200E25D322FA0CFE10EB0E0043FA4A
:104710000CFE41EB0E01CCF1200E03FA0EFE10EB65
:104720000E00CCF1200E51F1000129D401EB04510F
:1047300012FA0EF2BDE8104058BF7047401C1CBF73
:10474000B2F1004F704700280CBF491C20F0010057
:10475000704712EB020E43EB030218BF4FF0010E3D
:104760004EEA4202ACF1200CDCF11E0E56D943FA9F
:104770000CFE10EB0E00CCF11E0E51F1FF31D5D521
:104780000EF1010E12FA0EFE404141EB010101EB68
:10479000445C5FEA5C5C10D901EB045110EBDE7005
:1047A00038BFBEF1004FBDE8104018BF7047002869
:1047B0000CBF491C20F00100704734D24FEAD42CC2
:1047C00024F4006411F500111BD0B1FA81F20B3A08
:1047D000A41AA41ED2F12003914030FA03F3194326
:1047E000904001EBCC7101EB0451002CBDE810406E
:1047F000A8BF704701F1C04101F000414FF0000037
:104800007047B0FA80F310FA03F102D1BDE810400E
:104810007047E41A173C4805C90AE2E701EB045166
:10482000BDE81040704749104FEA300001EB0451D9
:10483000BDE8104002E04FF0000170474A0008BF99
:104840000042F8D0B2F5001F28BF704701F00041C8
:104850004FF0000070479EEA445F07D011EA5E0FF8
:10486000BDE8104004BF002100207047BDE81040A3
:1048700070B5FFF7C7FE00BF40DFF63E104683F07D
:10488000004170470000E0FF43004FEAD30C4FEABD
:104890003C0C43401FBF40070CF1605113F0FE4F2A
:1048A00070471CF0006F03D10CF0004100207047EE
:1048B0000CF0004343EA507040EACC0010B500F021
:1048C0000EF800BF000000924FEA0001FFF7E8BEBB
:1048D0004FF00041A1F500214FF0000070470EF1AC
:1048E000020E2EF0030E5EF8044B244204D44FEA6D
:1048F0004102B2F17F4F11D84FEA4003B3F17F4F2D
:104900000CD80ED14FEAD07C0CEB4C0C0CF1020C05
:10491000B2F17F4F08BF4CEBD17C04E04FF0080CA4
:1049200001E04FEAD17C0CEB4C0324FA03F404F0D1
:104930000704B4F1040C06D20EEB840CBDE8104061
:104940004CF0010C6047DFE80CF0070802024FF062
:104950000040A0F5800010BD0846420018BFD2F10B
:10496000807288BF00F0004010BDF1EE100A4FF6D3
:10497000FF71C0F2C03120EA010040F04070E1EE6A
:10498000100A7047FF2141EAD050C0057047FBF77D
:104990008CBE000002400000000000A000000000EB
:1049A00005400000000000C8000000000C400000AE
:1049B0000000409C00000000194000000020BCBE28
:1049C0000000000034400000BFC91B8E000000043E
:1049D000B5400000504BCFD06607E2CF0100000089
:1049E0006C4100003E8251AADFEEA73401000000B6
:1049F000D9420000DCB5A0E23A301F97FFFFFFFF6D
:104A0000B4450000FD25A0C8E9A3C14FFFFFFFFF8B
:104A1000FF3F00000000008000000000FF3F00009A
:104A20000000008000000000000000000000000006
:104A30000102030406070809000000000102030444
:104A4000804A00080000002020000000C401000887
:104A5000A04A00082000002000090000E001000832
:104A60001C00000043000000F8FFFFFF0C000000E6
:104A70000E0000000F0000002E00000000000000EB
:104A8000992900088D290008B52900087D2900080A
:104A9000A52900080024F400010000001000000017
:040000050800018965
:00000001FF
